8=FIX.4.2|9=211|35=D|34=8|49=DESHAW|52=20250315-14:30:02.325|56=BROKER|11=20250315-9889122|15=USD|21=1|22=1|38=2000000|40=2|44=182.15|48=88160R101|54=2|55=TSLA1|59=0|60=20250315-14:30:02.320|10=045|
8=FIX.4.2|9=215|35=D|34=9|49=DESHAW|52=20250315-14:32:15.668|56=BROKER|11=20250315-9889123|15=USD|21=1|22=1|38=3500000|40=2|44=183.65|48=88160R101|54=2|55=TSLA-OLD|59=0|60=20250315-14:32:15.665|10=087|
8=FIX.4.2|9=219|35=8|34=10|49=BROKER|52=20250315-14:32:15.678|56=DESHAW|6=0|11=20250315-9889123|14=0|17=6432158|20=0|22=1|37=10235512|38=3500000|39=0|40=2|44=183.65|48=88160R101|54=2|55=TSLA-OLD|59=0|150=0|151=3500000|10=215|
8=FIX.4.2|9=218|35=D|34=11|49=DESHAW|52=20250315-14:35:45.223|56=BROKER|11=20250315-9889124|15=USD|21=1|22=1|38=4200000|40=2|44=181.59|48=88160R101|54=2|55=TSLA_X|59=0|60=20250315-14:35:45.220|10=209|
8=FIX.4.2|9=225|35=8|34=12|49=BROKER|52=20250315-14:35:45.230|56=DESHAW|6=0|11=20250315-9889124|14=0|17=6432159|20=0|22=1|37=10235513|38=4200000|39=0|40=2|44=181.59|48=88160R101|54=2|55=TSLA_X|59=0|150=0|151=4200000|10=010|
8=FIX.4.2|9=228|35=8|34=13|49=BROKER|52=20250315-14:38:45.125|56=DESHAW|6=182.12|11=20250315-9889122|14=1000000|17=6432163|20=0|22=1|37=10235511|38=2000000|39=1|40=2|44=182.15|48=88160R101|54=2|55=TSLA1|59=0|150=1|151=1000000|10=076|
8=FIX.4.2|9=220|35=D|34=14|49=DESHAW|52=20250315-14:40:33.452|56=BROKER|11=20250315-9889125|15=USD|21=1|22=1|38=1500000|40=2|44=184.35|48=88160R101|54=2|55=TSLA|59=0|60=20250315-14:40:33.450|10=121|
8=FIX.4.2|9=228|35=8|34=15|49=BROKER|52=20250315-14:40:33.461|56=DESHAW|6=0|11=20250315-9889125|14=0|17=6432164|20=0|22=1|37=10235516|38=1500000|39=0|40=2|44=184.35|48=88160R101|54=2|55=TSLA|59=0|150=0|151=1500000|10=198|
8=FIX.4.2|9=231|35=8|34=16|49=BROKER|52=20250315-14:42:05.780|56=DESHAW|6=181.61|11=20250315-9889124|14=2200000|17=6432165|20=0|22=1|37=10235513|38=4200000|39=1|40=2|44=181.59|48=88160R101|54=2|55=TSLA_X|59=0|150=1|151=2000000|10=157|
8=FIX.4.2|9=229|35=8|34=17|49=BROKER|52=20250315-14:45:45.554|56=DESHAW|6=184.30|11=20250315-9889125|14=1500000|17=6432167|20=0|22=1|37=10235516|38=1500000|39=2|40=2|44=184.35|48=88160R101|54=2|55=TSLA|59=0|150=2|151=0|10=025|
