8=FIX.4.2|9=145|35=A|34=1|49=DESHAW|52=20200601-07:45:02.423|56=BROKER|98=0|108=30|141=Y|553=DSHEDGE1|554=Tr@d1ngP@$$|10=123|
8=FIX.4.2|9=103|35=0|34=2|49=DESHAW|52=20200601-07:45:32.423|56=BROKER|10=124|
8=FIX.4.2|9=103|35=0|34=3|49=DESHAW|52=20200601-08:00:32.423|56=BROKER|10=125|
8=FIX.4.2|9=103|35=0|34=4|49=DESHAW|52=20200601-08:15:32.423|56=BROKER|10=126|
8=FIX.4.2|9=103|35=0|34=5|49=DESHAW|52=20200601-08:30:32.423|56=BROKER|10=127|
8=FIX.4.2|9=103|35=0|34=6|49=DESHAW|52=20200601-08:45:32.423|56=BROKER|10=128|
8=FIX.4.2|9=103|35=0|34=7|49=DESHAW|52=20200601-09:00:32.423|56=BROKER|10=129|
8=FIX.4.2|9=211|35=D|34=8|49=DESHAW|52=20200601-09:30:02.325|56=BROKER|11=20200601-9889122|15=USD|21=1|22=1|38=1000|40=2|44=142.15|48=0333100|54=1|55=OOPS|59=0|60=20200601-09:30:02.320|10=045|
8=FIX.4.2|9=219|35=8|34=9|49=BROKER|52=20200601-09:30:02.335|56=DESHAW|6=0|11=20200601-9889122|14=0|17=6432157|20=0|22=1|37=10235511|38=1000|39=0|40=2|44=142.15|48=037833100|54=1|55=AAPL|59=0|150=0|151=1000|10=198|
8=FIX.4.2|9=215|35=D|34=10|49=DESHAW|52=20200601-09:31:15.668|56=BROKER|11=20200601-9889123|15=USD|21=1|22=1|38=2500|40=2|44=118.65|48=594918104|54=1|55=WRONG|59=0|60=20200601-09:31:15.665|10=087|
8=FIX.4.2|9=223|35=8|34=11|49=BROKER|52=20200601-09:31:15.678|56=DESHAW|6=0|11=20200601-9889123|14=0|17=6432158|20=0|22=1|37=10235512|38=2500|39=0|40=2|44=118.65|48=594918104|54=1|55=MSFT|59=0|150=0|151=2500|10=215|
8=FIX.4.2|9=217|35=D|34=12|49=DESHAW|52=20200601-09:32:45.223|56=BROKER|11=20200601-9889124|15=USD|21=1|22=1|38=5000|40=2|44=182.59|48=30303M102|54=2|55=BA|59=0|60=20200601-09:32:45.220|10=209|
8=FIX.4.2|9=225|35=8|34=13|49=BROKER|52=20200601-09:32:45.230|56=DESHAW|6=0|11=20200601-9889124|14=0|17=6432159|20=0|22=1|37=10235513|38=5000|39=0|40=2|44=182.59|48=30303M102|54=2|55=BA|59=0|150=0|151=5000|10=010|
8=FIX.4.2|9=215|35=D|34=14|49=DESHAW|52=20200601-09:35:12.887|56=BROKER|11=20200601-9889125|15=USD|21=1|22=1|38=7500|40=2|44=184.43|48=46625H100|54=1|55=JPM|59=0|60=20200601-09:35:12.885|10=122|
8=FIX.4.2|9=223|35=8|34=15|49=BROKER|52=20200601-09:35:12.893|56=DESHAW|6=0|11=20200601-9889125|14=0|17=6432160|20=0|22=1|37=10235514|38=7500|39=0|40=2|44=184.43|48=46625H100|54=1|55=JPM|59=0|150=0|151=7500|10=217|
8=FIX.4.2|9=229|35=8|34=16|49=BROKER|52=20200601-09:36:15.320|56=DESHAW|6=184.42|11=20200601-9889125|14=500|17=6432161|20=0|22=1|37=10235514|38=7500|39=1|40=2|44=184.43|48=46625H100|54=1|55=JPM|59=0|150=1|151=7000|10=180|
8=FIX.4.2|9=219|35=D|34=17|49=DESHAW|52=20200601-09:38:22.564|56=BROKER|11=20200601-9889126|15=USD|21=1|22=1|38=3000|40=2|44=2319.42|48=023135106|54=1|55=AMZN|59=0|60=20200601-09:38:22.560|10=132|
8=FIX.4.2|9=227|35=8|34=18|49=BROKER|52=20200601-09:38:22.575|56=DESHAW|6=0|11=20200601-9889126|14=0|17=6432162|20=0|22=1|37=10235515|38=3000|39=0|40=2|44=2319.42|48=023135106|54=1|55=AMZN|59=0|150=0|151=3000|10=219|
8=FIX.4.2|9=229|35=8|34=19|49=BROKER|52=20200601-09:38:45.125|56=DESHAW|6=142.12|11=20200601-9889122|14=300|17=6432163|20=0|22=1|37=10235511|38=1000|39=1|40=2|44=142.15|48=037833100|54=1|55=AAPL|59=0|150=1|151=700|10=076|
8=FIX.4.2|9=220|35=D|34=20|49=DESHAW|52=20200601-09:40:33.452|56=BROKER|11=20200601-9889127|15=USD|21=1|22=1|38=12000|40=2|44=38.75|48=67066G104|54=2|55=NVDA|59=0|60=20200601-09:40:33.450|10=121|
8=FIX.4.2|9=228|35=8|34=21|49=BROKER|52=20200601-09:40:33.461|56=DESHAW|6=0|11=20200601-9889127|14=0|17=6432164|20=0|22=1|37=10235516|38=12000|39=0|40=2|44=38.75|48=67066G104|54=2|55=NVDA|59=0|150=0|151=12000|10=198|
8=FIX.4.2|9=231|35=8|34=22|49=BROKER|52=20200601-09:42:05.780|56=DESHAW|6=182.61|11=20200601-9889124|14=1200|17=6432165|20=0|22=1|37=10235513|38=5000|39=1|40=2|44=182.59|48=30303M102|54=2|55=BA|59=0|150=1|151=3800|10=157|
8=FIX.4.2|9=215|35=D|34=23|49=DESHAW|52=20200601-09:45:12.332|56=BROKER|11=20200601-9889128|15=USD|21=1|22=1|38=4500|40=2|44=224.05|48=88160R101|54=1|55=TSLA|59=0|60=20200601-09:45:12.330|10=078|
8=FIX.4.2|9=223|35=8|34=24|49=BROKER|52=20200601-09:45:12.342|56=DESHAW|6=0|11=20200601-9889128|14=0|17=6432166|20=0|22=1|37=10235517|38=4500|39=0|40=2|44=224.05|48=88160R101|54=1|55=TSLA|59=0|150=0|151=4500|10=210|
8=FIX.4.2|9=229|35=8|34=25|49=BROKER|52=20200601-09:45:45.554|56=DESHAW|6=118.68|11=20200601-9889123|14=900|17=6432167|20=0|22=1|37=10235512|38=2500|39=1|40=2|44=118.65|48=594918104|54=1|55=MSFT|59=0|150=1|151=1600|10=025|
8=FIX.4.2|9=229|35=8|34=26|49=BROKER|52=20200601-09:47:12.321|56=DESHAW|6=142.15|11=20200601-9889122|14=700|17=6432168|20=0|22=1|37=10235511|38=1000|39=1|40=2|44=142.15|48=037833100|54=1|55=AAPL|59=0|150=1|151=0|10=097|
8=FIX.4.2|9=217|35=D|34=27|49=DESHAW|52=20200601-09:50:05.221|56=BROKER|11=20200601-9889129|15=USD|21=1|22=1|38=8500|40=2|44=231.58|48=G1151C101|54=2|55=SHOP|59=0|60=20200601-09:50:05.220|10=100|
8=FIX.4.2|9=225|35=8|34=28|49=BROKER|52=20200601-09:50:05.230|56=DESHAW|6=0|11=20200601-9889129|14=0|17=6432169|20=0|22=1|37=10235518|38=8500|39=0|40=2|44=231.58|48=G1151C101|54=2|55=SHOP|59=0|150=0|151=8500|10=248|
8=FIX.4.2|9=231|35=8|34=29|49=BROKER|52=20200601-09:52:18.443|56=DESHAW|6=224.12|11=20200601-9889128|14=2000|17=6432170|20=0|22=1|37=10235517|38=4500|39=1|40=2|44=224.05|48=88160R101|54=1|55=TSLA|59=0|150=1|151=2500|10=192|
8=FIX.4.2|9=216|35=D|34=30|49=DESHAW|52=20200601-09:55:37.564|56=BROKER|11=20200601-9889130|15=USD|21=1|22=1|38=2000|40=2|44=201.94|48=91347P105|54=1|55=UNH|59=0|60=20200601-09:55:37.560|10=136|
8=FIX.4.2|9=224|35=8|34=31|49=BROKER|52=20200601-09:55:37.573|56=DESHAW|6=0|11=20200601-9889130|14=0|17=6432171|20=0|22=1|37=10235519|38=2000|39=0|40=2|44=201.94|48=91347P105|54=1|55=UNH|59=0|150=0|151=2000|10=234|
8=FIX.4.2|9=230|35=8|34=32|49=BROKER|52=20200601-09:57:28.765|56=DESHAW|6=2320.01|11=20200601-9889126|14=1500|17=6432172|20=0|22=1|37=10235515|38=3000|39=1|40=2|44=2319.42|48=023135106|54=1|55=AMZN|59=0|150=1|151=1500|10=174|
8=FIX.4.2|9=218|35=D|34=33|49=DESHAW|52=20200601-10:00:15.332|56=BROKER|11=20200601-9889131|15=USD|21=1|22=1|38=6000|40=2|44=172.86|48=78462F103|54=1|55=SBUX|59=0|60=20200601-10:00:15.330|10=168|
8=FIX.4.2|9=226|35=8|34=34|49=BROKER|52=20200601-10:00:15.340|56=DESHAW|6=0|11=20200601-9889131|14=0|17=6432173|20=0|22=1|37=10235520|38=6000|39=0|40=2|44=172.86|48=78462F103|54=1|55=SBUX|59=0|150=0|151=6000|10=237|
8=FIX.4.2|9=230|35=8|34=35|49=BROKER|52=20200601-10:02:34.887|56=DESHAW|6=118.70|11=20200601-9889123|14=1600|17=6432174|20=0|22=1|37=10235512|38=2500|39=1|40=2|44=118.65|48=594918104|54=1|55=MSFT|59=0|150=2|151=0|10=218|
8=FIX.4.2|9=219|35=D|34=36|49=DESHAW|52=20200601-10:05:28.764|56=BROKER|11=20200601-9889132|15=USD|21=1|22=1|38=3500|40=2|44=173.12|48=20030N101|54=2|55=CMCSA|59=0|60=20200601-10:05:28.760|10=181|
8=FIX.4.2|9=227|35=8|34=37|49=BROKER|52=20200601-10:05:28.771|56=DESHAW|6=0|11=20200601-9889132|14=0|17=6432175|20=0|22=1|37=10235521|38=3500|39=0|40=2|44=173.12|48=20030N101|54=2|55=CMCSA|59=0|150=0|151=3500|10=237|
8=FIX.4.2|9=218|35=D|34=38|49=DESHAW|52=20200601-10:06:45.398|56=BROKER|11=20200601-9889133|15=USD|21=1|22=1|38=5000|40=2|44=120.38|48=17275R102|54=1|55=CSCO|59=0|60=20200601-10:06:45.395|10=155|
8=FIX.4.2|9=226|35=8|34=39|49=BROKER|52=20200601-10:06:45.401|56=DESHAW|6=0|11=20200601-9889133|14=0|17=6432176|20=0|22=1|37=10235522|38=5000|39=0|40=2|44=120.38|48=17275R102|54=1|55=CSCO|59=0|150=0|151=5000|10=214|
8=FIX.4.2|9=230|35=8|34=40|49=BROKER|52=20200601-10:08:12.654|56=DESHAW|6=201.97|11=20200601-9889130|14=1200|17=6432177|20=0|22=1|37=10235519|38=2000|39=1|40=2|44=201.94|48=91347P105|54=1|55=UNH|59=0|150=1|151=800|10=150|
8=FIX.4.2|9=216|35=D|34=41|49=DESHAW|52=20200601-10:10:02.245|56=BROKER|11=20200601-9889134|15=USD|21=1|22=1|38=4500|40=1|44=0.00|48=458140100|54=1|55=INTC|59=0|60=20200601-10:10:02.240|10=091|
8=FIX.4.2|9=166|35=j|34=42|49=BROKER|52=20200601-10:10:02.250|56=DESHAW|45=41|58=Order rejected: market orders not allowed|10=245|
8=FIX.4.2|9=224|35=8|34=43|49=BROKER|52=20200601-10:10:02.255|56=DESHAW|6=0|11=20200601-9889134|14=0|17=6432178|20=0|22=1|37=10235523|38=4500|39=8|40=1|44=0.00|48=458140100|54=1|55=INTC|59=0|150=8|151=0|10=223|
8=FIX.4.2|9=216|35=D|34=44|49=DESHAW|52=20200601-10:11:35.778|56=BROKER|11=20200601-9889135|15=USD|21=1|22=1|38=4500|40=2|44=61.82|48=458140100|54=1|55=INTC|59=0|60=20200601-10:11:35.775|10=134|
8=FIX.4.2|9=224|35=8|34=45|49=BROKER|52=20200601-10:11:35.785|56=DESHAW|6=0|11=20200601-9889135|14=0|17=6432179|20=0|22=1|37=10235524|38=4500|39=0|40=2|44=61.82|48=458140100|54=1|55=INTC|59=0|150=0|151=4500|10=051|
8=FIX.4.2|9=230|35=8|34=46|49=BROKER|52=20200601-10:13:22.431|56=DESHAW|6=172.90|11=20200601-9889131|14=1800|17=6432180|20=0|22=1|37=10235520|38=6000|39=1|40=2|44=172.86|48=78462F103|54=1|55=SBUX|59=0|150=1|151=4200|10=190|
8=FIX.4.2|9=228|35=8|34=47|49=BROKER|52=20200601-10:15:55.214|56=DESHAW|6=39.42|11=20200601-9889127|14=3000|17=6432181|20=0|22=1|37=10235516|38=12000|39=1|40=2|44=38.75|48=67066G104|54=2|55=NVDA|59=0|150=1|151=9000|10=175|
8=FIX.4.2|9=218|35=D|34=48|49=DESHAW|52=20200601-10:18:02.552|56=BROKER|11=20200601-9889136|15=USD|21=1|22=1|38=7500|40=2|44=132.80|48=98379L109|54=1|55=ZM|59=0|60=20200601-10:18:02.550|10=107|
8=FIX.4.2|9=226|35=8|34=49|49=BROKER|52=20200601-10:18:02.558|56=DESHAW|6=0|11=20200601-9889136|14=0|17=6432182|20=0|22=1|37=10235525|38=7500|39=0|40=2|44=132.80|48=98379L109|54=1|55=ZM|59=0|150=0|151=7500|10=200|
8=FIX.4.2|9=218|35=D|34=50|49=DESHAW|52=20200601-10:20:15.669|56=BROKER|11=20200601-9889137|15=USD|21=1|22=1|38=2000|40=2|44=101.38|48=24703L203|54=1|55=DOCU|59=0|60=20200601-10:20:15.665|10=154|
8=FIX.4.2|9=226|35=8|34=51|49=BROKER|52=20200601-10:20:15.674|56=DESHAW|6=0|11=20200601-9889137|14=0|17=6432183|20=0|22=1|37=10235526|38=2000|39=0|40=2|44=101.38|48=24703L203|54=1|55=DOCU|59=0|150=0|151=2000|10=246|
8=FIX.4.2|9=232|35=8|34=52|49=BROKER|52=20200601-10:22:45.332|56=DESHAW|6=2321.15|11=20200601-9889126|14=1500|17=6432184|20=0|22=1|37=10235515|38=3000|39=1|40=2|44=2319.42|48=023135106|54=1|55=AMZN|59=0|150=2|151=0|10=181|
8=FIX.4.2|9=230|35=8|34=53|49=BROKER|52=20200601-10:25:28.877|56=DESHAW|6=173.15|11=20200601-9889132|14=1200|17=6432185|20=0|22=1|37=10235521|38=3500|39=1|40=2|44=173.12|48=20030N101|54=2|55=CMCSA|59=0|150=1|151=2300|10=181|
8=FIX.4.2|9=217|35=D|34=54|49=DESHAW|52=20200601-10:28:35.223|56=BROKER|11=20200601-9889138|15=USD|21=1|22=1|38=3000|40=2|44=245.77|48=75886F107|54=1|55=REGN|59=0|60=20200601-10:28:35.220|10=112|
8=FIX.4.2|9=224|35=8|34=55|49=BROKER|52=20200601-10:28:35.227|56=DESHAW|6=0|11=20200601-9889138|14=0|17=6432186|20=0|22=1|37=10235527|38=3000|39=0|40=2|44=245.77|48=75886F107|54=1|55=REGN|59=0|150=0|151=3000|10=049|
8=FIX.4.2|9=230|35=8|34=56|49=BROKER|52=20200601-10:30:42.554|56=DESHAW|6=120.42|11=20200601-9889133|14=2000|17=6432187|20=0|22=1|37=10235522|38=5000|39=1|40=2|44=120.38|48=17275R102|54=1|55=CSCO|59=0|150=1|151=3000|10=185|
8=FIX.4.2|9=228|35=8|34=57|49=BROKER|52=20200601-10:33:55.765|56=DESHAW|6=61.85|11=20200601-9889135|14=1500|17=6432188|20=0|22=1|37=10235524|38=4500|39=1|40=2|44=61.82|48=458140100|54=1|55=INTC|59=0|150=1|151=3000|10=033|
8=FIX.4.2|9=218|35=D|34=58|49=DESHAW|52=20200601-10:36:25.367|56=BROKER|11=20200601-9889139|15=USD|21=1|22=1|38=1500|40=2|44=127.24|48=00724F101|54=1|55=ADBE|59=0|60=20200601-10:36:25.365|10=149|
8=FIX.4.2|9=226|35=8|34=59|49=BROKER|52=20200601-10:36:25.373|56=DESHAW|6=0|11=20200601-9889139|14=0|17=6432189|20=0|22=1|37=10235528|38=1500|39=0|40=2|44=127.24|48=00724F101|54=1|55=ADBE|59=0|150=0|151=1500|10=196|
8=FIX.4.2|9=230|35=8|34=60|49=BROKER|52=20200601-10:38:45.221|56=DESHAW|6=132.82|11=20200601-9889136|14=3000|17=6432190|20=0|22=1|37=10235525|38=7500|39=1|40=2|44=132.80|48=98379L109|54=1|55=ZM|59=0|150=1|151=4500|10=179|
8=FIX.4.2|9=217|35=D|34=61|49=DESHAW|52=20200601-10:40:15.554|56=BROKER|11=20200601-9889140|15=USD|21=1|22=1|38=4000|40=2|44=153.13|48=92343V104|54=2|55=VZ|59=0|60=20200601-10:40:15.550|10=074|
8=FIX.4.2|9=225|35=8|34=62|49=BROKER|52=20200601-10:40:15.558|56=DESHAW|6=0|11=20200601-9889140|14=0|17=6432191|20=0|22=1|37=10235529|38=4000|39=0|40=2|44=153.13|48=92343V104|54=2|55=VZ|59=0|150=0|151=4000|10=228|
8=FIX.4.2|9=230|35=8|34=63|49=BROKER|52=20200601-10:42:38.887|56=DESHAW|6=101.42|11=20200601-9889137|14=800|17=6432192|20=0|22=1|37=10235526|38=2000|39=1|40=2|44=101.38|48=24703L203|54=1|55=DOCU|59=0|150=1|151=1200|10=179|
8=FIX.4.2|9=226|35=8|34=64|49=BROKER|52=20200601-10:44:12.324|56=DESHAW|6=245.80|11=20200601-9889138|14=900|17=6432193|20=0|22=1|37=10235527|38=3000|39=1|40=2|44=245.77|48=75886F107|54=1|55=REGN|59=0|150=1|151=2100|10=043|
8=FIX.4.2|9=220|35=D|34=65|49=DESHAW|52=20200601-10:45:55.786
